:1000000040C064C063C062C061C060C010C45EC054
:100010005DC06CC35BC0D9C3B3C358C057C056C022
:1000200055C054C053C000000000370034003100F8
:100030000000000038003500320000000000000021
:1000400000000003040600000000000000000000A3
:1000500000003600330030000404040404040404E7
:100060000202020202020303030303030102040863
:100070001020408001020408102001020408102012
:10008000130711241FBECFE5D4E0DEBFCDBF10E0C3
:10009000A0E6B0E0E8E9F1E102C005900D92AC38CD
:1000A000B107D9F721E0ACE8B0E001C01D92A5345A
:1000B000B207E1F710E0C1E4D0E003C02197FE01F0
:1000C00046D7C034D107D1F72CD464C899CF8FB7A5
:1000D000F894E0E4F1E01082118212821382939886
:1000E0009598C19A929A8FBF0895FC01538D448DC3
:1000F000252F30E0842F90E0821B930B541710F0D3
:10010000CF96089501970895FC01918D828D9817DF
:1001100061F0828DDF01A80FB11D5D968C91928DEB
:100120009F5F9F73928F90E008958FEF9FEF0895E8
:10013000FC01918D828D981731F0828DE80FF11DB1
:10014000858D90E008958FEF9FEF0895FC01918DCC
:10015000228D892F90E0805C9F4F821B91098F73C5
:1001600099270895FC01848DDF01A80FB11DA35AC2
:10017000BF4F2C91848D90E001968F739927848FC7
:10018000A689B7892C93A089B1898C9182748C93AC
:10019000938D848D981306C00288F389E02D8081A9
:1001A0008F7D80830895EF92FF920F931F93CF93DB
:1001B000DF93EC0181E0888F9B8D8C8D981305C0B7
:1001C000E889F989808185FD25C0F62E0B8D10E028
:1001D0000F5F1F4F0F731127E02E8C8DE8120BC09D
:1001E0000FB607FCFACFE889F989808185FFF5CF42
:1001F000CE01B8DFF2CF8B8DFE01E80FF11DE35A7F
:10020000FF4FF0829FB7F8940B8FEA89FB898081BA
:10021000806209C09FB7F894EE89FF896083E889FE
:10022000F9898081827480839FBF81E090E0DF91B3
:10023000CF911F910F91FF90EF900895CF93DF938F
:10024000EC01888D8823C1F0EA89FB89808185FDD6
:1002500005C0A889B9898C9186FD0EC00FB607FC30
:10026000F5CF808185FFF2CFA889B9898C9185FF70
:10027000EDCFCE0177DFE8CFDF91CF9108958CE805
:1002800090E064DF21E0892B09F420E0822F0895BB
:1002900080E090E0892B19F0F2DF8111B1CE089552
:1002A00090E0FC01E65CFF4F3491FC01E459FF4F04
:1002B0002491FC01E85AFF4FE491EE2331F13323FE
:1002C00081F0343039F0363049F0333051F48FB5A5
:1002D0008F7702C08FB58F7D8FBD03C085B58F7DB1
:1002E00085BDF0E0EE0FFF1FE05DFF4FA591B491DB
:1002F0009FB7F894611105C08C91E22FE095E82337
:1003000002C0EC91E22BEC939FBF0895CF93DF9353
:1003100090E0FC01E459FF4F2491FC01E85AFF4FA3
:100320008491882361F190E0880F991FFC01EA5DB8
:10033000FF4FC591D491FC01E05DFF4FA591B491B1
:10034000611109C09FB7F894888120958223888322
:10035000EC912E230BC0623061F49FB7F894888132
:10036000322F309583238883EC912E2B2C939FBFC3
:1003700006C08FB7F894E8812E2B28838FBFDF91BA
:10038000CF9108953FB7F89480913C0190913D0141
:10039000A0913E01B0913F0122B708B600FE05C012
:1003A0002F3F19F00196A11DB11D3FBFBA2FA92FF4
:1003B000982F8827820F911DA11DB11DBC01CD0171
:1003C00042E0660F771F881F991F4A95D1F708955D
:1003D0008F929F92AF92BF92CF92DF92EF92FF9255
:1003E0006B017C01CFDF4B015C01C114D104E1043E
:1003F000F104E9F0C7DFDC01CB0188199909AA09EA
:10040000BB09883E9340A105B10578F321E0C21AEB
:10041000D108E108F10888EE880E83E0981EA11C3F
:10042000B11CC114D104E104F10421F7DECFFF9027
:10043000EF90DF90CF90BF90AF909F908F900895F6
:100440002FB7F894609138017091390180913A0189
:1004500090913B012FBF0895CF92DF92EF92FF92D0
:100460000F931F93CF93DF936C017A018B01C0E050
:10047000D0E0CE15DF0581F0D8016D918D01D60158
:10048000ED91FC910190F081E02DC6010995892B39
:1004900011F02196EECF7E01C701DF91CF911F9120
:1004A0000F91FF90EF90DF90CF900895089580E036
:1004B00090E0089581382FEF920714F481E89FEFC0
:1004C0009C018038910514F02FE730E0C9010996AE
:1004D000439708F43FC012161306D4F4C901330F32
:1004E000AA0BBB0B9C01AD012A50310941095109EE
:1004F000AFE7B0E0F4D425E730E040E050E0D3D4FB
:1005000020934001109241018FE78093420128C05F
:1005100021153105F9F010924001319521953109ED
:10052000C901330FAA0BBB0B9C01AD012A50310945
:1005300041095109AFE7B0E0D2D425E730E040E00F
:1005400050E0B1D420934101109242018FE7809393
:10055000430108951092400110924101109242010E
:10056000109243010895EF92FF920F931F93CF9340
:10057000DF937C01C0E0D0E003EE13E0CE15DF0591
:1005800074F48DE590E096DFC8010197F1F783EAF6
:100590009FEF90DFC8010197F1F72196EFCF80E040
:1005A00090E088DF64E670E080E090E0DF91CF913A
:1005B0001F910F91FF90EF900BCF0F931F93E4E7E4
:1005C000F0E06491E0E6F0E0E491F0E0EE0FFF1F70
:1005D000E25BFF4F8591949108EA11E620E030E05C
:1005E000462F5AD1611571058105910549F0DC014D
:1005F000CB010196A11DB11DBC01CD019F7003C0AF
:1006000060E070E0CB011F910F910895BFD53EC40B
:10061000CF92DF92EF92FF92CF93DF93EC016A01CA
:100620007B01642FF4DF9927F7FC9A958F2D7E2D9F
:100630006D2DCE010196EBDFB701992777FD9095DF
:10064000892FCE010296E3DF6F2D77278827992720
:10065000CE010396DF91CF91FF90EF90DF90CF9086
:10066000D6CF0CC4CF92DF92EF92FF920F931F93DD
:10067000CF936B017C01CB01F4DFC82FC60101963B
:10068000F0DF182FC6010296ECDF082FC601039693
:10069000E8DF412F50E060E070E0762F652F542FA7
:1006A00044274C0F511D611D711D10E020E030E00A
:1006B000980111270027400F511F621F731F90E000
:1006C000A0E0B0E0B82FAA27992788278A019B01CC
:1006D000080F191F2A1F3B1FC901B801CF911F9195
:1006E0000F91FF90EF90DF90CF9008951F920F929F
:1006F0000FB60F9211242F933F938F939F93AF9335
:10070000BF938091380190913901A0913A01B09145
:100710003B013091370123E0230F2D3720F4019660
:10072000A11DB11D05C026E8230F0296A11DB11D14
:10073000209337018093380190933901A0933A01B7
:10074000B0933B0180913C0190913D01A0913E010D
:10075000B0913F010196A11DB11D80933C01909382
:100760003D01A0933E01B0933F01BF91AF919F9196
:100770008F913F912F910F900FBE0F901F90189562
:100780001F920F920FB60F9211242F933F934F9306
:100790005F936F937F938F939F93AF93BF93EF93E9
:1007A000FF938CE890E0DEDCFF91EF91BF91AF9179
:1007B0009F918F917F916F915F914F913F912F9179
:1007C0000F900FBE0F901F9018951F920F920FB6AB
:1007D0000F9211242F938F939F93EF93FF93E091A8
:1007E0009C00F0919D008081E091A200F091A30017
:1007F00082FD12C090818091A5008F5F8F73209140
:10080000A600821751F0E091A500F0E0E457FF4FF9
:10081000958F8093A50001C08081FF91EF919F91FA
:100820008F912F910F900FBE0F901F9018951F92D0
:100830000F920FB60F9211248F939F93789480910B
:10084000440190914301891710F4939A01C0939841
:1008500090914201891710F4959A01C09598909152
:100860004101891710F0C19A01C0C19890914001CF
:10087000891710F0929A01C092988F5F8E3719F005
:100880008093440102C0109244019F918F910F9078
:100890000FBE0F901F901895CF92DF92EF92FF92AC
:1008A0000F931F93E82FF92F05C00150110921095B
:1008B000310961F1908196239417B9F305C0015075
:1008C00011092109310911F1908196239413F7CF71
:1008D000C12CD12CE12CF12C0AC08FEFC81AD80AF8
:1008E000E80AF80A0C151D052E053F0579F08081F0
:1008F0008623841791F36C2D7D2D8E2D9F2D1F91B6
:100900000F91FF90EF90DF90CF90089560E070E03E
:1009100080E090E01F910F91FF90EF90DF90CF90DB
:100920000895789483B7826083BF83B7816083BF63
:1009300089B7816089BF1EBC8EB582608EBD8EB5C1
:1009400081608EBD8FB581608FBD85B5846085BDAA
:1009500085B5806485BD329A319A309A379A1AB833
:1009600060E088E0D3DC61E080E1D0DC61E081E13F
:10097000CDDC61E080E194DC61E081E191DCA7DB2A
:100980008FB7F8948B9A8D9AB99A8A9A8FBF1FBCA9
:1009900089E08EBD8EE790E09BBD8ABD89B78061FE
:1009A00089BF1092440193DB82E390E0DCDD82E3B7
:1009B00090E0D9DD60ED77E080E090E009DDFDDDDD
:1009C000672B682B692B19F568EB7BE080E090E0E2
:1009D000FFDC60E080E164DC60E081E161DC82E317
:1009E00090E0C1DD60E080E15BDC60E081E158DC4B
:1009F0004EE050E069E770E08CE890E02DDD42E0E9
:100A000050E068E870E08CE890E026DDD8CF88E21E
:100A100090E027DE8F3F91F460E288E290E0F7DD1E
:100A20004DEB51E060E070E080E390E0F1DD40E20A
:100A300053E060E070E080E290E0EADDBEDD6B0153
:100A40007C0160933301709334018093350190935E
:100A5000360160E370E080E090E004DE16161706D1
:100A60001806190624F4709362006093610060E236
:100A700070E080E090E0F6DD20916100309162004E
:100A80004901330FAA08BB0886169706A806B906BF
:100A900024F47093640060936300C701B6015FD2D1
:100AA0006B017C016091630070916400072E000C63
:100AB000880B990B54D226E636E646E65FE38ED2E3
:100AC0009B01AC01C701B60185D218160CF0C0C05D
:100AD00061E080E1E5DB60E081E1E2DB84E690E07B
:100AE00042DD84E690E03FDD84E690E03CDDA8DC7A
:100AF00060932F0170933001809331019093320104
:100B0000C12CD12C76019CDC80902F01909030017B
:100B1000A0903101B0903201DC01CB018819990914
:100B2000AA09BB09803D9740A105B105E0F445DD68
:100B30004B015C0160933301709334018093350164
:100B400090933601C616D706E806F906E4F678DC77
:100B500060932F01709330018093310190933201A3
:100B600075016401D0CF88EC90E0FDDC69DC609316
:100B70002F0170933001809331019093320180E115
:100B8000882E87E2982EA12CB12C5ADC40902F01A0
:100B9000509030016090310170903201DC01CB0146
:100BA00084199509A609B709803D9740A105B105AB
:100BB000E0F403DD2B013C016093330170933401B9
:100BC0008093350190933601681579058A059B0558
:100BD000E4F636DC60932F0170933001809331018D
:100BE0009093320153014201D0CFD701C601881939
:100BF0009909AA09BB094497A105B10574F484EFCA
:100C000091E0B1DC68EE73E080E090E0E1DB64EF5E
:100C100071E080E090E0DCDB61CF82E390E0A3DC78
:100C200084E690E0A0DC82E390E09DDC84E690E046
:100C30009ADCB501A40180E390E0EADCB701A601EB
:100C400080E290E0E5DC68EE73E080E090E0C0DBFD
:100C500080E090E02FDC60E370E080E090E002DD77
:100C6000709362006093610060E270E080E090E069
:100C7000F9DC709364006093630060E080E110DB56
:100C800061E081E10DDB99DC6B017C016093330154
:100C90007093340180933501909336018091650003
:100CA00090916600092E000CAA0BBB0BC816D90642
:100CB000EA06FB0669F0D0926600C0926500C0DBD0
:100CC00060932F0170933001809331019093320132
:100CD000B7DB80902F0190903001A0903101B0904F
:100CE0003201DC01CB0188199909AA09BB09813DB0
:100CF0009740A105B10528F4C114D104E104F10421
:100D000089F49EDB603D77408105910540F481EDDB
:100D1000881687E09806A104B1040CF075C080E045
:100D200090E053C09601D0922E01C0922D014091C7
:100D30002B0150912C018091290190912A019093CF
:100D40002C0180932B01D0922A01C09229018C158D
:100D50009D050CF463C0241735070CF44CC0C090FB
:100D60006100D09062000D2C000CEE08FF0820916D
:100D70002D0130912E01C901330FAA0BBB0B9C0131
:100D8000AD012C193D094E095F09AEEFB0E0A7D0C7
:100D900020916300309164008901330F220B330BE3
:100DA000A90198012C193D094E095F097CD0DA018F
:100DB000C9018F579109A109B10990932E01809320
:100DC0002D0120916000211102C074DB0DC0099635
:100DD000439710F41092600062E370E080E090E0CE
:100DE000F7DA8AE090E0BFDB6AE070E080E090E054
:100DF000EFDA4EDA48CF281739070CF0B0CF9093CE
:100E00002E0180932D01ABCF1BDB60932F017093DC
:100E10003001809331019093320181CF4C155D05F3
:100E20000CF09DCFECCFECE8F0E01382128288EE5C
:100E300093E0A0E0B0E084839583A683B7838BE63C
:100E400090E09183808380E490E09587848729E215
:100E500030E0378726872BE230E0318B208B2AE287
:100E600030E0338B228B958B848B8CE290E0978BD8
:100E7000868B118E128E138E148E0895E199FECFFB
:100E80009FBB8EBBE09A99278DB30895262FE199D9
:100E9000FECF9FBB8EBB2DBB0FB6F894E29AE19AB2
:100EA0000FBE01960895052E97FB16F400940FD0FF
:100EB00057FD05D01ED007FC02D046F408C050955F
:100EC0004095309521953F4F4F4F5F4F0895909536
:100ED0008095709561957F4F8F4F9F4F08952BD0D0
:100EE000A59F900DB49F900DA49F800D911D11247E
:100EF0000895A1E21A2EAA1BBB1BFD010DC0AA1F5B
:100F0000BB1FEE1FFF1FA217B307E407F50720F072
:100F1000A21BB30BE40BF50B661F771F881F991FED
:100F20001A9469F760957095809590959B01AC0136
:100F3000BD01CF010895A29FB001B39FC001A39F3F
:100F400001D0B29F700D811D1124911D0895EE0FE7
:100F5000FF1F0590F491E02D0994E89409C097FBD8
:100F60003EF490958095709561957F4F8F4F9F4F80
:100F70009923A9F0F92F96E9BB279395F6958795C4
:100F800077956795B795F111F8CFFAF4BB0F11F487
:100F900060FF1BC06F5F7F4F8F4F9F4F16C088232E
:100FA00011F096E911C0772321F09EE8872F762F64
:100FB00005C0662371F096E8862F70E060E02AF0A5
:100FC0009A95660F771F881FDAF7880F9695879591
:100FD00097F9089566D008F48FEF08950BD09CC060
:100FE0008DD028F092D018F0952309F07EC083C0F0
:100FF0001124C6C0A2D0A0F3959FD1F3950F50E065
:10100000551F629FF001729FBB27F00DB11D639FBA
:10101000AA27F00DB11DAA1F649F6627B00DA11D60
:10102000661F829F2227B00DA11D621F739FB00D06
:10103000A11D621F839FA00D611D221F749F332776
:10104000A00D611D231F849F600D211D822F762F0F
:101050006A2F11249F5750408AF0E1F088234AF00C
:10106000EE0FFF1FBB1F661F771F881F9150504058
:10107000A9F79E3F510570F038C082C05F3FECF386
:10108000983EDCF3869577956795B795F795E79544
:101090009F5FC1F7FE2B880F911D9695879597F955
:1010A0000895990F0008550FAA0BE0E8FEEF1616F9
:1010B0001706E807F907C0F012161306E407F5074C
:1010C00098F0621B730B840B950B39F40A2661F0C0
:1010D000232B242B252B21F408950A2609F4A14063
:1010E000A6958FEF811D811D089597F99F6780E870
:1010F00070E060E008959FEF80EC089500240A946A
:101100001616170618060906089500240A941216E2
:101110001306140605060895092E0394000C11F415
:10112000882352F0BB0F40F4BF2B11F460FF04C0C2
:101130006F5F7F4F8F4F9F4F089557FD9058440F1B
:10114000551F59F05F3F71F04795880F97FB991F26
:1011500061F09F3F79F087950895121613061406E3
:10116000551FF2CF4695F1DF08C016161706180670
:10117000991FF1CF86957105610508940895E8944B
:10118000BB2766277727CB0197F9089581E090E088
:08119000F89400C0F894FFCFB1
:1011980001BD012003640000000000D3002C02758B
:1011A800001E01A600840098004E6F2050756C73D5
:0C11B8006520466F756E64000D0A000093
:00000001FF
