:1000000036C05AC059C058C057C056C090C354C01B
:1000100053C0ECC251C059C333C34EC04DC04CC0D5
:100020004BC04AC049C00000000038003500320013
:1000300000000000370034003100000000003600EE
:100040003300300004040404040404040202020225
:10005000020203030303030301020408102040808B
:100060000102040810200102040810208E06112449
:100070001FBECFE5D4E0DEBFCDBF21E0A0E9B0E0F8
:1000800001C01D92AB34B207E1F710E0A0E6B0E08A
:10009000EEE8F0E102C005900D92A039B107D9F762
:1000A00010E0C7E3D0E003C02197FE0162D6C6335B
:1000B000D107D1F7B6D3E9C7A3CFFC01538D448D47
:1000C000252F30E0842F90E0821B930B541710F003
:1000D000CF96089501970895FC01918D828D981710
:1000E00061F0828DDF01A80FB11D5D968C91928D1C
:1000F0009F5F9F73928F90E008958FEF9FEF089519
:10010000FC01918D828D981731F0828DE80FF11DE1
:10011000858D90E008958FEF9FEF0895FC01918DFC
:10012000228D892F90E0805C9F4F821B91098F73F5
:1001300099270895FC01848DDF01A80FB11DA35AF2
:10014000BF4F2C91848D90E001968F739927848FF7
:10015000A689B7892C93A089B1898C9180648C93EE
:10016000938D848D981306C00288F389E02D8081D9
:100170008F7D80830895EF92FF920F931F93CF930B
:10018000DF93EC0181E0888F9B8D8C8D981305C0E7
:10019000E889F989808185FD23C0F62E0B8D10E05A
:1001A0000F5F1F4F0F731127E02E8C8DE8120BC0CD
:1001B0000FB607FCFACFE889F989808185FFF5CF72
:1001C000CE01B8DFF2CF8B8DFE01E80FF11DE35AAF
:1001D000FF4FF0820B8FEA89FB898081806207C024
:1001E000EE89FF896083E889F98980818064808352
:1001F00081E090E0DF91CF911F910F91FF90EF9000
:100200000895CF93DF93EC01888D8823C1F0EA89AC
:10021000FB89808185FD05C0A889B9898C9186FDFF
:100220000EC00FB607FCF5CF808185FFF2CFA889FD
:10023000B9898C9185FFEDCFCE017CDFE8CFDF91CE
:10024000CF91089580E990E069DF21E0892B09F4DE
:1002500020E0822F089580E090E0892B19F0F2DFF2
:100260008111CECE08953FB7F894809142019091CC
:100270004301A0914401B091450122B708B600FEA8
:1002800005C02F3F19F00196A11DB11D3FBFBA2F28
:10029000A92F982F8827820F911DA11DB11DBC0188
:1002A000CD0142E0660F771F881F991F4A95D1F74D
:1002B00008958F929F92AF92BF92CF92DF92EF926A
:1002C000FF926B017C01CFDF4B015C01C114D104B3
:1002D000E104F104E9F0C7DFDC01CB0188199909D9
:1002E000AA09BB09883E9340A105B10578F321E036
:1002F000C21AD108E108F10888EE880E83E0981E42
:10030000A11CB11CC114D104E104F10421F7DECF1A
:10031000FF90EF90DF90CF90BF90AF909F908F9025
:1003200008952FB7F89460913E0170913F0180913C
:100330004001909141012FBF0895CF92DF92EF923B
:10034000FF920F931F93CF93DF936C017A018B0180
:10035000C0E0D0E0CE15DF0589F0D8016D918D01A8
:10036000D601ED91FC910190F081E02DC601099537
:10037000892B11F47E0102C02196ECCFC701DF91D9
:10038000CF911F910F91FF90EF90DF90CF90089544
:10039000089580E090E0089581382FEF920714F4DB
:1003A00081E89FEF9C018038910514F02FE730E041
:1003B000C9010996439708F43FC012161306D4F4F6
:1003C000C901330FAA0BBB0B9C01AD012A503109A7
:1003D00041095109AFE7B0E020D625E730E040E021
:1003E00050E0FFD520934601109247018FE780939C
:1003F000480128C021153105F9F0109246013195C8
:1004000021953109C901330FAA0BBB0B9C01AD012A
:100410002A50310941095109AFE7B0E0FED525E77F
:1004200030E040E050E0DDD52093470110924801D4
:100430008FE7809349010895109246011092470179
:1004400010924801109249010895EF92FF920F9384
:100450001F93CF93DF937C01C0E0D0E003EE13E065
:10046000CE15DF0574F48DE590E096DFF801319745
:10047000F1F783EA9FEF90DFF8013197F1F72196CA
:10048000EFCF80E090E088DF64E670E080E090E00D
:10049000DF91CF911F910F91FF90EF900ACF0F93B3
:1004A0001F93EAE5F0E06491E6E4F0E0E491F0E027
:1004B000EE0FFF1FE65CFF4F8591949108EA11E66D
:1004C00020E030E0462F68D1611571058105910566
:1004D00049F0DC01CB010196A11DB11DBC01CD018C
:1004E0009F7003C060E070E0CB011F910F910895F1
:1004F0008FB7F894E6E4F1E0108211821282138241
:100500009598C098AB9A949A8FBF089551D55CC5C1
:10051000CF92DF92EF92FF92CF93DF93EC016A01CB
:100520007B01642FF4DF9927F7FC9A958F2D7E2DA0
:100530006D2DCE010196EBDFB701992777FD9095E0
:10054000892FCE010296E3DF6F2D77278827992721
:10055000CE010396DF91CF91FF90EF90DF90CF9087
:10056000D6CF2AC5CF92DF92EF92FF920F931F93BF
:10057000CF936B017C01CB01F4DF182FC6010196EC
:10058000F0DFC82FC6010296ECDF082FC6010396E4
:10059000E8DF4C2F50E060E070E0762F652F542F9D
:1005A0004427410F511D611D711D10E020E030E016
:1005B000980111270027400F511F621F731F90E001
:1005C000A0E0B0E0B82FAA27992788278A019B01CD
:1005D000080F191F2A1F3B1FC901B801CF911F9196
:1005E0000F91FF90EF90DF90CF9008951F920F92A0
:1005F0000FB60F9211242F933F938F939F93AF9336
:10060000BF9380913E0190913F01A0914001B09134
:10061000410130913D0123E0230F2D3720F4019655
:10062000A11DB11D05C026E8230F0296A11DB11D15
:1006300020933D0180933E0190933F01A0934001A0
:10064000B09341018091420190914301A0914401F6
:10065000B09145010196A11DB11D80934201909377
:100660004301A0934401B0934501BF91AF919F9185
:100670008F913F912F910F900FBE0F901F90189563
:100680001F920F920FB60F9211242F933F934F9307
:100690005F936F937F938F939F93AF93BF93EF93EA
:1006A000FF9380E990E046DDFF91EF91BF91AF911C
:1006B0009F918F917F916F915F914F913F912F917A
:1006C0000F900FBE0F901F9018951F920F920FB6AC
:1006D0000F9211242F938F939F93EF93FF93E091A9
:1006E000A000F091A1008081E091A600F091A70008
:1006F00082FD12C090818091A9008F5F8F7320913D
:10070000AA00821751F0E091A900F0E0E057FF4FF6
:10071000958F8093A90001C08081FF91EF919F91F7
:100720008F912F910F900FBE0F901F9018951F92D1
:100730000F920FB60F9211248F939F93789480910C
:100740004A0190914901891710F4959A01C0959832
:1007500090914801891710F4C09A01C0C0989091F7
:100760004701891710F0AB9A01C0AB9890914601F0
:10077000891710F0949A01C094988F5F8E3719F002
:1007800080934A0102C010924A019F918F910F906D
:100790000FBE0F901F901895CF92DF92EF92FF92AD
:1007A0000F931F93E82FF92F05C00150110921095C
:1007B000310961F1908196239417B9F305C0015076
:1007C00011092109310911F1908196239413F7CF72
:1007D000C12CD12CE12CF12C0AC08FEFC81AD80AF9
:1007E000E80AF80A0C151D052E053F0579F08081F1
:1007F0008623841791F36C2D7D2D8E2D9F2D1F91B7
:100800000F91FF90EF90DF90CF90089560E070E03F
:1008100080E090E01F910F91FF90EF90DF90CF90DC
:100820000895789483B7826083BF83B7816083BF64
:1008300089B7816089BF1EBC8EB582608EBD8EB5C2
:1008400081608EBD8FB581608FBD85B5846085BDAB
:1008500085B5806485BD329A319A309A379A1AB834
:10086000EAE5F0E02491E6E4F0E084918823C1F029
:1008700090E0880F991FFC01E05DFF4FC591D49176
:10088000FC01EA5DFF4FA591B4919FB7F894888170
:10089000E22FE0958E2388838C91E823EC939FBF11
:1008A00027DE8FB7F8948D9AB89AA39A8C9A8FBF47
:1008B0001FBC89E08EBD8EE790E09BBD8ABD89B7E5
:1008C000806189BF10924A0113DE82E390E0BDDDB2
:1008D00082E390E0BADD60ED77E080E090E0E9DC73
:1008E000DEDD672B682B692BB9F468EB7BE080E0D9
:1008F00090E0DFDC82E390E0A8DD4EE050E06DE7C1
:1009000070E080E990E019DD42E050E06CE870E0D2
:1009100080E990E012DDE4CF88E290E022DE8F3FB4
:1009200091F460E288E290E0F2DD4DEB51E060E0AE
:1009300070E080E390E0ECDD40E253E060E070E0E6
:1009400080E290E0E5DDABDD6B017C016093390175
:1009500070933A0180933B0190933C0160E370E017
:1009600080E090E0FFDD161617061806190624F43D
:10097000709362006093610060E270E080E090E05C
:10098000F1DD20916100309162004901330FAA0826
:10099000BB0886169706A806B90624F4709364006F
:1009A00060936300C701B601ECD16B017C018091BB
:1009B000630090916400BC01990F880B990BE1D101
:1009C00026E636E646E65FE31BD29B01AC01C70193
:1009D000B60112D218160CF0BAC084E690E035DDEC
:1009E00084E690E032DD84E690E02FDD9ADC6093CF
:1009F0003501709336018093370190933801C12CF3
:100A0000D12C76018EDC8090350190903601A0903B
:100A10003701B0903801DC01CB0188199909AA0986
:100A2000BB09803D9740A105B105E0F438DD4B01DD
:100A30005C016093390170933A0180933B0190937C
:100A40003C01C616D706E806F906E4F66ADC6093B0
:100A50003501709336018093370190933801750109
:100A60006401D0CF88EC90E0F0DC5BDC6093350172
:100A700070933601809337019093380180E1882E7E
:100A800087E2982EA12CB12C4CDC4090350150907F
:100A900036016090370170903801DC01CB01841978
:100AA0009509A609B709803D9740A105B105E0F475
:100AB000F6DC2B013C016093390170933A0180937D
:100AC0003B0190933C01681579058A059B05E4F686
:100AD00028DC609335017093360180933701909341
:100AE000380153014201D0CFD701C60188199909B5
:100AF000AA09BB094497A105B10574F484EF91E0FC
:100B0000A4DC68EE73E080E090E0D3DB64EF71E09A
:100B100080E090E0CEDB61CF82E390E096DC84E67B
:100B200090E093DC82E390E090DC84E690E08DDC62
:100B3000B501A40180E390E0EBDCB701A60180E2FF
:100B400090E0E6DC68EE73E080E090E0B2DB80E00D
:100B500090E022DC60E370E080E090E003DD7093E1
:100B600062006093610060E270E080E090E0FADC97
:100B7000709364006093630092DC6B017C0160936E
:100B8000390170933A0180933B0190933C0180912D
:100B9000650090916600092E000CAA0BBB0BC816CD
:100BA000D906EA06FB0669F0D0926600C09265009D
:100BB000B8DB6093350170933601809337019093D1
:100BC0003801AFDB8090350190903601A09037015D
:100BD000B0903801DC01CB0188199909AA09BB0939
:100BE000813D9740A105B10508F079C0C114D10439
:100BF000E104F10409F473C09601D0923401C0926B
:100C000033014091310150913201509330014093B2
:100C10002F0180912D0190912E01909332018093AC
:100C20003101D0922E01C0922D018C159D050CF43E
:100C300070C0241735073CF42817390724F4909323
:100C4000340180933301C0906100D09062000D2C7C
:100C5000000CEE08FF082091330130913401C901E6
:100C6000330FAA0BBB0B9C01AD012C193D094E099A
:100C70005F09AEEFB0E0D1D1209163003091640004
:100C80008901330F220B330BA90198012C193D095F
:100C90004E095F09A6D1DA01C9018F579109A1094F
:100CA000B1099093340180933301209160002111A8
:100CB00002C072DB0DC00996439710F410926000D9
:100CC00062E370E080E090E0F4DA8AE090E0BDDB7F
:100CD0006AE070E080E090E0ECDABDDA4DCF21DB35
:100CE000603D77408105910538F481ED881687E0F5
:100CF0009806A104B1041CF480E090E0DACF11DB87
:100D000060933501709336018093370190933801D9
:100D1000F3CF4C155D050CF096CF91CFE0E9F0E0F4
:100D20001382128288EE93E0A0E0B0E08483958382
:100D3000A683B7838FE690E09183808380E490E080
:100D40009587848729E230E0378726872BE230E0D9
:100D5000318B208B2AE230E0338B228B958B848B76
:100D60008CE290E0978B868B118E128E138E148EF0
:100D70000895EE0FFF1F0590F491E02D0994E8947B
:100D800009C097FB3EF490958095709561957F4FD3
:100D90008F4F9F4F9923A9F0F92F96E9BB27939581
:100DA000F695879577956795B795F111F8CFFAF491
:100DB000BB0F11F460FF1BC06F5F7F4F8F4F9F4FC2
:100DC00016C0882311F096E911C0772321F09EE820
:100DD000872F762F05C0662371F096E8862F70E086
:100DE00060E02AF09A95660F771F881FDAF7880F60
:100DF0009695879597F9089566D008F48FEF089532
:100E00000BD09CC08DD028F092D018F0952309F01B
:100E10007EC083C01124C6C0A2D0A0F3959FD1F399
:100E2000950F50E0551F629FF001729FBB27F00D98
:100E3000B11D639FAA27F00DB11DAA1F649F6627ED
:100E4000B00DA11D661F829F2227B00DA11D621F3C
:100E5000739FB00DA11D621F839FA00D611D221FF6
:100E6000749F3327A00D611D231F849F600D211DDA
:100E7000822F762F6A2F11249F5750408AF0E1F07D
:100E800088234AF0EE0FFF1FBB1F661F771F881FC6
:100E900091505040A9F79E3F510570F038C082C074
:100EA0005F3FECF3983EDCF3869577956795B795B1
:100EB000F795E7959F5FC1F7FE2B880F911D9695DB
:100EC000879597F90895990F0008550FAA0BE0E848
:100ED000FEEF16161706E807F907C0F012161306FC
:100EE000E407F50798F0621B730B840B950B39F43C
:100EF0000A2661F0232B242B252B21F408950A26A2
:100F000009F4A140A6958FEF811D811D089597F9E1
:100F10009F6780E870E060E008959FEF80EC08959F
:100F200000240A94161617061806090608950024C8
:100F30000A9412161306140605060895092E039442
:100F4000000C11F4882352F0BB0F40F4BF2B11F4B6
:100F500060FF04C06F5F7F4F8F4F9F4F089557FD15
:100F60009058440F551F59F05F3F71F04795880F17
:100F700097FB991F61F09F3F79F0879508951216AE
:100F800013061406551FF2CF4695F1DF08C016165A
:100F900017061806991FF1CF86957105610508940B
:100FA0000895E894BB2766277727CB0197F9089522
:100FB00081E090E0F89469C0E199FECF9FBB8EBBC1
:100FC000E09A99278DB30895262FE199FECF9FBB14
:100FD0008EBB2DBB0FB6F894E29AE19A0FBE019634
:100FE0000895052E97FB16F400940FD057FD05D0F9
:100FF0001ED007FC02D046F408C0509540953095AD
:1010000021953F4F4F4F5F4F089590958095709574
:1010100061957F4F8F4F9F4F08952BD0A59F900DC7
:10102000B49F900DA49F800D911D11240895A1E2FD
:101030001A2EAA1BBB1BFD010DC0AA1FBB1FEE1F52
:10104000FF1FA217B307E407F50720F0A21BB30B9D
:10105000E40BF50B661F771F881F991F1A9469F719
:1010600060957095809590959B01AC01BD01CF0175
:101070000895A29FB001B39FC001A39F01D0B29F6A
:0E108000700D811D1124911D0895F894FFCF6D
:10108E0001BD01200364000100000000000000BB50
:10109E00009D015D0001018E006C0080004E6F20EE
:1010AE0050756C736520466F756E64000D0A0000F6
:00000001FF
