:1000000035C04FC04EC04DC04CC04BC026C249C0C9
:1000100048C0D9C146C045C044C043C042C041C029
:1000200040C03FC03EC00000000038003500320034
:1000300000000000370034003100000000003600EE
:100040003300300004040404040404040202020225
:10005000020203030303030301020408102040808B
:1000600001020408102001020408102011241FBE00
:10007000CFE5D4E0DEBFCDBF20E0AAE6B0E001C00E
:100080001D92A838B207E1F710E0A0E6B0E0E2E187
:10009000FDE002C005900D92AA36B107D9F757D2FC
:1000A00036C6AECF3FB7F89480917F009091800024
:1000B000A0918100B091820022B708B600FE05C071
:1000C0002F3F19F00196A11DB11D3FBFBA2FA92FD7
:1000D000982F8827820F911DA11DB11DBC01CD0154
:1000E00042E0660F771F881F991F4A95D1F7089540
:1000F0008F929F92AF92BF92CF92DF92EF92FF9238
:100100006B017C01CFDF4B015C01C114D104E10420
:10011000F104E9F0C7DFDC01CB0188199909AA09CC
:10012000BB09883E9340A105B10578F321E0C21ACE
:10013000D108E108F10888EE880E83E0981EA11C22
:10014000B11CC114D104E104F10421F7DECFFF900A
:10015000EF90DF90CF90BF90AF909F908F900895D9
:100160002FB7F89460917B0070917C0080917D00A6
:1001700090917E002FBF089581382FEF920714F4DD
:1001800081E89FEF9C018038910514F02FE730E063
:10019000C9014396879708F43FC012161306D4F49A
:1001A000C901330FAA0BBB0B9C01AD0124513109CE
:1001B00041095109AFE7B0E072D52BE630E040E0ED
:1001C00050E051D520938300109284008FE78093F4
:1001D000850028C021153105F9F010928300319572
:1001E00021953109C901330FAA0BBB0B9C01AD014D
:1001F0002451310941095109AFE7B0E050D52BE650
:1002000030E040E050E02FD520938400109285002C
:100210008FE78093860008951092830010928400E7
:1002200010928500109286000895EF92FF920F932E
:100230001F93CF93DF937C01C0E0D0E003EE13E087
:10024000CE15DF0574F48DE590E096DFF801319767
:10025000F1F783EA9FEF90DFF8013197F1F72196EC
:10026000EFCF80E090E088DF64E670E080E090E02F
:10027000DF91CF911F910F91FF90EF9039CF0F93A6
:100280001F93EAE5F0E06491E6E4F0E0E491F0E049
:10029000EE0FFF1FE65CFF4F8591949108EA11E68F
:1002A00020E030E0462F0ED16115710581059105E2
:1002B00049F0DC01CB010196A11DB11DBC01CD01AE
:1002C0009F7003C060E070E0CB011F910F91089513
:1002D0008FB7F894E3E8F0E0108211821282138263
:1002E0009598C098AB9A949A8FBF0895CF92DF9259
:1002F000EF92FF920F931F93CF936B017C01CB0181
:100300009DD4182FC601019699D4C82FC601029614
:1003100095D4082FC601039691D44C2F50E060E08D
:1003200070E0762F652F542F4427410F511D611D1A
:10033000711D10E020E030E0980111270027400FE8
:10034000511F621F731F90E0A0E0B0E0B82FAA27F2
:10035000992788278A019B01080F191F2A1F3B1F15
:10036000C901B801CF911F910F91FF90EF90DF90DD
:10037000CF900895CF92DF92EF92FF92CF93DF93C9
:10038000EC016A017B01642F61D49927F7FC9A95EF
:100390008F2D7E2D6D2DCE01019658D4B701992752
:1003A00077FD9095892FCE01029650D46F2D772737
:1003B00088279927CE010396DF91CF91FF90EF9088
:1003C000DF90CF9043C41F920F920FB60F9211246B
:1003D0002F933F938F939F93AF93BF9380917B0015
:1003E00090917C00A0917D00B0917E0030917A00C8
:1003F00023E0230F2D3720F40196A11DB11D05C068
:1004000026E8230F0296A11DB11D20937A00809348
:100410007B0090937C00A0937D00B0937E00809140
:100420007F0090918000A0918100B09182000196A0
:10043000A11DB11D80937F0090938000A093810047
:10044000B0938200BF91AF919F918F913F912F9177
:100450000F900FBE0F901F9018951F920F920FB61E
:100460000F9211248F939F9378948091870090919D
:100470008600891710F4959A01C09598909185008F
:10048000891710F4C09A01C0C09890918400891710
:1004900010F0AB9A01C0AB9890918300891710F0CF
:1004A000949A01C094988F5F8E3719F080938700DB
:1004B00002C0109287009F918F910F900FBE0F90F6
:1004C0001F901895CF92DF92EF92FF920F931F9398
:1004D000E82FF92F05C0015011092109310961F1F7
:1004E000908196239417B9F305C001501109210991
:1004F000310911F1908196239413F7CFC12CD12C9F
:10050000E12CF12C0AC08FEFC81AD80AE80AF80AC1
:100510000C151D052E053F0579F080818623841773
:1005200091F36C2D7D2D8E2D9F2D1F910F91FF909E
:10053000EF90DF90CF90089560E070E080E090E071
:100540001F910F91FF90EF90DF90CF9008957894D6
:1005500083B7826083BF83B7816083BF89B78160BF
:1005600089BF1EBC8EB582608EBD8EB581608EBD8A
:100570008FB581608FBD85B5846085BD85B580648C
:1005800085BD329A319A309A379A1AB8EAE5F0E086
:100590002491E6E4F0E084918823C1F090E0880F94
:1005A000991FFC01E05DFF4FC591D491FC01EA5D0C
:1005B000FF4FA591B4919FB7F8948881E22FE09501
:1005C0008E2388838C91E823EC939FBF81DE8FB7C5
:1005D000F8948D9AB89AA39A8C9A8FBF1FBC89E021
:1005E0008EBD8EE790E09BBD8ABD89B7806189BFD3
:1005F000109287006DDE82E390E017DE82E390E0E8
:1006000014DE60ED77E080E090E072DD38DE672B8D
:10061000682B692B49F468EB7BE080E090E068DDB3
:1006200082E390E002DEF2CF2ADE6B017C01609370
:10063000760070937700809378009093790060E45F
:1006400070E080E090E052DE1616170618061906D4
:1006500024F4709361006093600060E870E080E0D3
:1006600090E044DE20916000309161008901330FF9
:10067000220B330B061717072807390724F470934A
:10068000630060936200C701B601C1D16B017C01B8
:100690008091620090916300BC01990F880B990BC7
:1006A000B6D12DEC3CEC4CE45FE3F0D19B01AC0106
:1006B000C701B601E7D118160CF0BAC084E690E085
:1006C000B4DD84E690E0B1DD84E690E0AEDD48DDA7
:1006D0006093720070937300809374009093750020
:1006E000C12CD12C76013CDD009172001091730079
:1006F0002091740030917500DC01CB01801B910BBF
:10070000A20BB30B803D9740A105B105E0F4B7DD26
:100710004B015C01609376007093770080937800C2
:1007200090937900C616D706E806F906E4F618DDB8
:1007300060937200709373008093740090937500BF
:1007400075016401D0CF88EC90E06FDD09DD609326
:10075000720070937300809374009093750080E131
:10076000882E87E2982EA12CB12CFADC0091720021
:10077000109173002091740030917500DC01CB0161
:10078000801B910BA20BB30B803D9740A105B105D7
:10079000E0F475DD2B013C016093760070937700E7
:1007A0008093780090937900681579058A059B05F8
:1007B000E4F6D6DC6093720070937300809374004B
:1007C0009093750053014201D0CFD701C60188191B
:1007D0009909AA09BB094497A105B10574F484EFEE
:1007E00091E023DD68EE73E080E090E081DC64EF6F
:1007F00071E080E090E07CDC61CF82E390E015DD89
:1008000084E690E012DD82E390E00FDD84E690E084
:100810000CDDB501A40180E490E0ACDDB701A601D8
:1008200080E890E0A7DD68EE73E080E090E060DCB7
:1008300080E090E0A1DC60E470E080E090E056DDD4
:10084000709361006093600060E870E080E090E089
:100850004DDD7093630060936200C3E0D0E000E080
:1008600010E00DDD6B017C016093760070937700E2
:100870008093780090937900809164009091650056
:10088000092E000CAA0BBB0BC816D906EA06FB06FC
:1008900069F0D0926500C092640062DC60937200DF
:1008A00070937300809374009093750059DC80906E
:1008B000720090907300A0907400B0907500DC01FD
:1008C000CB0188199909AA09BB09813D9740A10567
:1008D000B10508F059C0C114D104E104F10409F4D0
:1008E00053C08090600090906100092C000CAA0811
:1008F000BB08A7019601281939094A095B09AEEF1F
:10090000B0E0CDD120916200309163006901330FD6
:10091000EE08FF08A7019601281939094A095B0961
:10092000A2D169017A018FE7C81AD108E108F1085C
:10093000D0927100C092700080916E0090916F0013
:1009400090936D0080936C0060916A0070916B00D1
:1009500070936F0060936E00D0926B00C0926A003B
:100960009B012C0D3D1D820F931FBE0127D0CB0193
:1009700003DC6AE070E080E090E0BADB011511056D
:1009800009F46FCF3DDB6DCFEBDB603D7740810538
:10099000910538F481ED881687E09806A104B1042A
:1009A0001CF480E090E0E4CFDBDB60937200709396
:1009B00073008093740090937500F3CF97FB072E1C
:1009C00016F4009406D077FD08D00BD007FC05D0B4
:1009D0003EF4909581959F4F0895709561957F4F56
:1009E0000895AA1BBB1B51E107C0AA1FBB1FA61776
:1009F000B70710F0A61BB70B881F991F5A95A9F7C8
:100A000080959095BC01CD010895E89409C097FBAD
:100A10003EF490958095709561957F4F8F4F9F4FD5
:100A20009923A9F0F92F96E9BB279395F695879519
:100A300077956795B795F111F8CFFAF4BB0F11F4DC
:100A400060FF1BC06F5F7F4F8F4F9F4F16C0882383
:100A500011F096E911C0772321F09EE8872F762FB9
:100A600005C0662371F096E8862F70E060E02AF0FA
:100A70009A95660F771F881FDAF7880F96958795E6
:100A800097F9089566D008F48FEF08950BD09CC0B5
:100A90008DD028F092D018F0952309F07EC083C045
:100AA0001124C6C0A2D0A0F3959FD1F3950F50E0BA
:100AB000551F629FF001729FBB27F00DB11D639F10
:100AC000AA27F00DB11DAA1F649F6627B00DA11DB6
:100AD000661F829F2227B00DA11D621F739FB00D5C
:100AE000A11D621F839FA00D611D221F749F3327CC
:100AF000A00D611D231F849F600D211D822F762F65
:100B00006A2F11249F5750408AF0E1F088234AF061
:100B1000EE0FFF1FBB1F661F771F881F91505040AD
:100B2000A9F79E3F510570F038C082C05F3FECF3DB
:100B3000983EDCF3869577956795B795F795E79599
:100B40009F5FC1F7FE2B880F911D9695879597F9AA
:100B50000895990F0008550FAA0BE0E8FEEF16164E
:100B60001706E807F907C0F012161306E407F507A1
:100B700098F0621B730B840B950B39F40A2661F015
:100B8000232B242B252B21F408950A2609F4A140B8
:100B9000A6958FEF811D811D089597F99F6780E8C5
:100BA00070E060E008959FEF80EC089500240A94BF
:100BB0001616170618060906089500240A94121638
:100BC0001306140605060895092E0394000C11F46B
:100BD000882352F0BB0F40F4BF2B11F460FF04C018
:100BE0006F5F7F4F8F4F9F4F089557FD9058440F71
:100BF000551F59F05F3F71F04795880F97FB991F7C
:100C000061F09F3F79F08795089512161306140638
:100C1000551FF2CF4695F1DF08C0161617061806C5
:100C2000991FF1CF86957105610508940895E894A0
:100C3000BB2766277727CB0197F90895E199FECF67
:100C40009FBB8EBBE09A99278DB30895262FE1991B
:100C5000FECF9FBB8EBB2DBB0FB6F894E29AE19AF4
:100C60000FBE01960895052E97FB16F400940FD041
:100C700057FD05D01ED007FC02D046F408C05095A1
:100C80004095309521953F4F4F4F5F4F0895909578
:100C90008095709561957F4F8F4F9F4F08952BD012
:100CA000A59F900DB49F900DA49F800D911D1124C0
:100CB0000895A1E21A2EAA1BBB1BFD010DC0AA1F9D
:100CC000BB1FEE1FFF1FA217B307E407F50720F0B5
:100CD000A21BB30BE40BF50B661F771F881F991F30
:100CE0001A9469F760957095809590959B01AC0179
:100CF000BD01CF010895A29FB001B39FC001A39F82
:100D000001D0B29F700D811D1124911D0895F8949A
:020D1000FFCF13
:0A0D120096002C01640001000000AF
:00000001FF
